{
  "contractName": "HASANTokenSale",
  "abi": [
    {
      "inputs": [
        {
          "internalType": "address",
          "name": "_tokenContractAddress",
          "type": "address"
        },
        {
          "internalType": "uint256",
          "name": "_tokenPrice",
          "type": "uint256"
        }
      ],
      "stateMutability": "nonpayable",
      "type": "constructor"
    },
    {
      "anonymous": false,
      "inputs": [
        {
          "indexed": false,
          "internalType": "address",
          "name": "_buyer",
          "type": "address"
        },
        {
          "indexed": false,
          "internalType": "uint256",
          "name": "_amount",
          "type": "uint256"
        }
      ],
      "name": "Sell",
      "type": "event"
    },
    {
      "inputs": [],
      "name": "admin",
      "outputs": [
        {
          "internalType": "address",
          "name": "",
          "type": "address"
        }
      ],
      "stateMutability": "view",
      "type": "function",
      "constant": true
    },
    {
      "inputs": [],
      "name": "tokenContract",
      "outputs": [
        {
          "internalType": "contract HASANTOKEN",
          "name": "",
          "type": "address"
        }
      ],
      "stateMutability": "view",
      "type": "function",
      "constant": true
    },
    {
      "inputs": [],
      "name": "tokenPrice",
      "outputs": [
        {
          "internalType": "uint256",
          "name": "",
          "type": "uint256"
        }
      ],
      "stateMutability": "view",
      "type": "function",
      "constant": true
    },
    {
      "inputs": [],
      "name": "tokensSold",
      "outputs": [
        {
          "internalType": "uint256",
          "name": "",
          "type": "uint256"
        }
      ],
      "stateMutability": "view",
      "type": "function",
      "constant": true
    },
    {
      "inputs": [],
      "name": "buyTokens",
      "outputs": [],
      "stateMutability": "payable",
      "type": "function",
      "payable": true
    },
    {
      "inputs": [],
      "name": "endSale",
      "outputs": [],
      "stateMutability": "nonpayable",
      "type": "function"
    }
  ],
  "bytecode": "0x608060405234801561001057600080fd5b50604051610bd7380380610bd7833981810160405281019061003291906100eb565b336000806101000a81548173ffffffffffffffffffffffffffffffffffffffff021916908373ffffffffffffffffffffffffffffffffffffffff16021790555081600160006101000a81548173ffffffffffffffffffffffffffffffffffffffff021916908373ffffffffffffffffffffffffffffffffffffffff160217905550806002819055505050610191565b6000815190506100d081610163565b92915050565b6000815190506100e58161017a565b92915050565b600080604083850312156100fe57600080fd5b600061010c858286016100c1565b925050602061011d858286016100d6565b9150509250929050565b600061013282610139565b9050919050565b600073ffffffffffffffffffffffffffffffffffffffff82169050919050565b6000819050919050565b61016c81610127565b811461017757600080fd5b50565b61018381610159565b811461018e57600080fd5b50565b610a37806101a06000396000f3fe6080604052600436106100555760003560e01c8063380d831b1461005a578063518ab2a81461007157806355a373d61461009c5780637ff9b596146100c7578063d0febe4c146100f2578063f851a440146100fc575b600080fd5b34801561006657600080fd5b5061006f610127565b005b34801561007d57600080fd5b50610086610368565b60405161009391906107fc565b60405180910390f35b3480156100a857600080fd5b506100b161036e565b6040516100be91906107a1565b60405180910390f35b3480156100d357600080fd5b506100dc610394565b6040516100e991906107fc565b60405180910390f35b6100fa61039a565b005b34801561010857600080fd5b506101116105ea565b60405161011e919061075d565b60405180910390f35b60008054906101000a900473ffffffffffffffffffffffffffffffffffffffff1673ffffffffffffffffffffffffffffffffffffffff163373ffffffffffffffffffffffffffffffffffffffff16146101b5576040517f08c379a00000000000000000000000000000000000000000000000000000000081526004016101ac906107dc565b60405180910390fd5b600160009054906101000a900473ffffffffffffffffffffffffffffffffffffffff1673ffffffffffffffffffffffffffffffffffffffff1663a9059cbb60008054906101000a900473ffffffffffffffffffffffffffffffffffffffff16600160009054906101000a900473ffffffffffffffffffffffffffffffffffffffff1673ffffffffffffffffffffffffffffffffffffffff166370a08231306040518263ffffffff1660e01b815260040161026f919061075d565b60206040518083038186803b15801561028757600080fd5b505afa15801561029b573d6000803e3d6000fd5b505050506040513d601f19601f820116820180604052508101906102bf9190610661565b6040518363ffffffff1660e01b81526004016102dc929190610778565b602060405180830381600087803b1580156102f657600080fd5b505af115801561030a573d6000803e3d6000fd5b505050506040513d601f19601f8201168201806040525081019061032e9190610638565b5060008054906101000a900473ffffffffffffffffffffffffffffffffffffffff1673ffffffffffffffffffffffffffffffffffffffff16ff5b60035481565b600160009054906101000a900473ffffffffffffffffffffffffffffffffffffffff1681565b60025481565b6000600254346103aa919061087e565b9050670de0b6b3a7640000816103c091906108af565b600160009054906101000a900473ffffffffffffffffffffffffffffffffffffffff1673ffffffffffffffffffffffffffffffffffffffff166370a08231306040518263ffffffff1660e01b815260040161041b919061075d565b60206040518083038186803b15801561043357600080fd5b505afa158015610447573d6000803e3d6000fd5b505050506040513d601f19601f8201168201806040525081019061046b9190610661565b10156104ac576040517f08c379a00000000000000000000000000000000000000000000000000000000081526004016104a3906107bc565b60405180910390fd5b600160009054906101000a900473ffffffffffffffffffffffffffffffffffffffff1673ffffffffffffffffffffffffffffffffffffffff1663a9059cbb33670de0b6b3a7640000846104ff91906108af565b6040518363ffffffff1660e01b815260040161051c929190610778565b602060405180830381600087803b15801561053657600080fd5b505af115801561054a573d6000803e3d6000fd5b505050506040513d601f19601f8201168201806040525081019061056e9190610638565b50670de0b6b3a76400008161058391906108af565b600360008282546105949190610828565b925050819055507f5e5e995ce3133561afceaa51a9a154d5db228cd7525d34df5185582c18d3df0933670de0b6b3a7640000836105d191906108af565b6040516105df929190610778565b60405180910390a150565b60008054906101000a900473ffffffffffffffffffffffffffffffffffffffff1681565b60008151905061061d816109d3565b92915050565b600081519050610632816109ea565b92915050565b60006020828403121561064a57600080fd5b60006106588482850161060e565b91505092915050565b60006020828403121561067357600080fd5b600061068184828501610623565b91505092915050565b61069381610909565b82525050565b6106a281610951565b82525050565b60006106b5602683610817565b91507f736d61727420636f6e747261637420646f6e7420686f6c6420656e6f7567682060008301527f746f6b656e7300000000000000000000000000000000000000000000000000006020830152604082019050919050565b600061071b601183610817565b91507f796f7520617265206e6f742061646d696e0000000000000000000000000000006000830152602082019050919050565b61075781610947565b82525050565b6000602082019050610772600083018461068a565b92915050565b600060408201905061078d600083018561068a565b61079a602083018461074e565b9392505050565b60006020820190506107b66000830184610699565b92915050565b600060208201905081810360008301526107d5816106a8565b9050919050565b600060208201905081810360008301526107f58161070e565b9050919050565b6000602082019050610811600083018461074e565b92915050565b600082825260208201905092915050565b600061083382610947565b915061083e83610947565b9250827fffffffffffffffffffffffffffffffffffffffffffffffffffffffffffffffff0382111561087357610872610975565b5b828201905092915050565b600061088982610947565b915061089483610947565b9250826108a4576108a36109a4565b5b828204905092915050565b60006108ba82610947565b91506108c583610947565b9250817fffffffffffffffffffffffffffffffffffffffffffffffffffffffffffffffff04831182151516156108fe576108fd610975565b5b828202905092915050565b600061091482610927565b9050919050565b60008115159050919050565b600073ffffffffffffffffffffffffffffffffffffffff82169050919050565b6000819050919050565b600061095c82610963565b9050919050565b600061096e82610927565b9050919050565b7f4e487b7100000000000000000000000000000000000000000000000000000000600052601160045260246000fd5b7f4e487b7100000000000000000000000000000000000000000000000000000000600052601260045260246000fd5b6109dc8161091b565b81146109e757600080fd5b50565b6109f381610947565b81146109fe57600080fd5b5056fea2646970667358221220cbe4b1fc769bf8a109a5977e46c4f95076b386a625fa3552a37167cbb1f39a3d64736f6c63430008000033",
  "immutableReferences": {},
  "source": "// SPDX-License-Identifier: MIT\r\npragma solidity ^0.8.0;\r\n\r\n\r\nimport \"./HASANTOKEN.sol\";\r\n\r\ncontract HASANTokenSale {\r\n\r\n    address public admin;             \r\n    HASANTOKEN public tokenContract;   \r\n    uint256 public tokenPrice;          \r\n    uint256 public tokensSold;\r\n    event Sell(address _buyer,uint256 _amount);  \r\n\r\n    constructor(address _tokenContractAddress, uint256 _tokenPrice) {\r\n        //assign an admin\r\n        admin =msg.sender;      \r\n        //Token contract\r\n        tokenContract = HASANTOKEN(_tokenContractAddress);   \r\n        //Token Price\\\r\n        tokenPrice = _tokenPrice;    \r\n    }\r\n\r\n    \r\n\r\n    //Buy Tokens\r\n    function buyTokens() public payable {\r\n          uint256    amount =msg.value / tokenPrice;\r\n            //require that the contract has enough tokens or not\r\n        require(tokenContract.balanceOf(address(this)) >=  amount*10**18 ,'smart contract dont hold enough tokens');\r\n        \r\n        // transfer the tokens to user\r\n        tokenContract.transfer(msg.sender, amount*10**18 );\r\n        //keep track of tokensSold\r\n          tokensSold +=  amount*10**18 ;\r\n        //triger Sell Event\r\n       emit Sell(msg.sender, amount*10**18 );\r\n \r\n\r\n    }\r\n\r\n    //ending Token DappTokenSale\r\n    function endSale() public {\r\n        //Require admin ,check if admin has clicked the function\r\n        require(msg.sender == admin,'you are not admin');\r\n        //Transfer remaining dapp tokens to admin\r\n        tokenContract.transfer(admin, tokenContract.balanceOf(address(this)));\r\n        //Destroy contract\r\n        selfdestruct(payable(admin));\r\n    }\r\n}\r\n",
  "sourcePath": "E:/Crowd-Sale-Dappp/contracts/HASANTOKENSALE.sol",
  "compiler": {
    "name": "solc",
    "version": "0.8.0+commit.c7dfd78e.Emscripten.clang"
  },
  "schemaVersion": "3.4.1",
  "updatedAt": "2021-08-12T15:55:03.165Z",
  "networkType": "ethereum",
  "devdoc": {
    "kind": "dev",
    "methods": {},
    "version": 1
  },
  "userdoc": {
    "kind": "user",
    "methods": {},
    "version": 1
  }
}